{
  "contractName": "VegetableTraceability",
  "abi": [
    {
      "anonymous": false,
      "inputs": [
        {
          "indexed": false,
          "internalType": "uint256",
          "name": "vegetableId",
          "type": "uint256"
        },
        {
          "indexed": false,
          "internalType": "string",
          "name": "vegetableType",
          "type": "string"
        },
        {
          "indexed": false,
          "internalType": "uint256",
          "name": "harvestDate",
          "type": "uint256"
        },
        {
          "indexed": false,
          "internalType": "string",
          "name": "location",
          "type": "string"
        },
        {
          "indexed": false,
          "internalType": "string",
          "name": "productionPractice",
          "type": "string"
        }
      ],
      "name": "VegetableAdded",
      "type": "event"
    },
    {
      "inputs": [],
      "name": "vegetableCounter",
      "outputs": [
        {
          "internalType": "uint256",
          "name": "",
          "type": "uint256"
        }
      ],
      "stateMutability": "view",
      "type": "function",
      "constant": true
    },
    {
      "inputs": [
        {
          "internalType": "uint256",
          "name": "",
          "type": "uint256"
        }
      ],
      "name": "vegetables",
      "outputs": [
        {
          "internalType": "string",
          "name": "vegetableType",
          "type": "string"
        },
        {
          "internalType": "uint256",
          "name": "harvestDate",
          "type": "uint256"
        },
        {
          "internalType": "string",
          "name": "location",
          "type": "string"
        },
        {
          "internalType": "string",
          "name": "productionPractice",
          "type": "string"
        }
      ],
      "stateMutability": "view",
      "type": "function",
      "constant": true
    },
    {
      "inputs": [
        {
          "internalType": "string",
          "name": "_vegetableType",
          "type": "string"
        },
        {
          "internalType": "uint256",
          "name": "_harvestDate",
          "type": "uint256"
        },
        {
          "internalType": "string",
          "name": "_location",
          "type": "string"
        },
        {
          "internalType": "string",
          "name": "_productionPractice",
          "type": "string"
        }
      ],
      "name": "addVegetable",
      "outputs": [],
      "stateMutability": "nonpayable",
      "type": "function"
    },
    {
      "inputs": [
        {
          "internalType": "uint256",
          "name": "_vegetableId",
          "type": "uint256"
        }
      ],
      "name": "getVegetable",
      "outputs": [
        {
          "internalType": "string",
          "name": "vegetableType",
          "type": "string"
        },
        {
          "internalType": "uint256",
          "name": "harvestDate",
          "type": "uint256"
        },
        {
          "internalType": "string",
          "name": "location",
          "type": "string"
        },
        {
          "internalType": "string",
          "name": "productionPractice",
          "type": "string"
        }
      ],
      "stateMutability": "view",
      "type": "function",
      "constant": true
    }
  ],
  "bytecode": "0x608060405234801561001057600080fd5b50610b35806100206000396000f3fe608060405234801561001057600080fd5b506004361061004c5760003560e01c80630891d0761461005157806312029c891461008457806331109cb8146100a2578063515b4df3146100d5575b600080fd5b61006b60048036038101906100669190610686565b6100f1565b60405161007b949392919061075b565b60405180910390f35b61008c6102b9565b60405161009991906107b5565b60405180910390f35b6100bc60048036038101906100b79190610686565b6102bf565b6040516100cc949392919061075b565b60405180910390f35b6100ef60048036038101906100ea9190610905565b6104a1565b005b6000602052806000526040600020600091509050806000018054610114906109ef565b80601f0160208091040260200160405190810160405280929190818152602001828054610140906109ef565b801561018d5780601f106101625761010080835404028352916020019161018d565b820191906000526020600020905b81548152906001019060200180831161017057829003601f168201915b5050505050908060010154908060020180546101a8906109ef565b80601f01602080910402602001604051908101604052809291908181526020018280546101d4906109ef565b80156102215780601f106101f657610100808354040283529160200191610221565b820191906000526020600020905b81548152906001019060200180831161020457829003601f168201915b505050505090806003018054610236906109ef565b80601f0160208091040260200160405190810160405280929190818152602001828054610262906109ef565b80156102af5780601f10610284576101008083540402835291602001916102af565b820191906000526020600020905b81548152906001019060200180831161029257829003601f168201915b5050505050905084565b60015481565b606060006060806000806000878152602001908152602001600020905080600001816001015482600201836003018380546102f9906109ef565b80601f0160208091040260200160405190810160405280929190818152602001828054610325906109ef565b80156103725780601f1061034757610100808354040283529160200191610372565b820191906000526020600020905b81548152906001019060200180831161035557829003601f168201915b50505050509350818054610385906109ef565b80601f01602080910402602001604051908101604052809291908181526020018280546103b1906109ef565b80156103fe5780601f106103d3576101008083540402835291602001916103fe565b820191906000526020600020905b8154815290600101906020018083116103e157829003601f168201915b50505050509150808054610411906109ef565b80601f016020809104026020016040519081016040528092919081815260200182805461043d906109ef565b801561048a5780601f1061045f5761010080835404028352916020019161048a565b820191906000526020600020905b81548152906001019060200180831161046d57829003601f168201915b505050505090509450945094509450509193509193565b600160008154809291906104b490610a4f565b91905055506040518060800160405280858152602001848152602001838152602001828152506000806001548152602001908152602001600020600082015181600001908051906020019061050a929190610599565b50602082015181600101556040820151816002019080519060200190610531929190610599565b50606082015181600301908051906020019061054e929190610599565b509050507f26d840aa8140ed1aeabfdfb076dc7b4aeda261cc95df4def0e0d8937405ec10f6001548585858560405161058b959493929190610a97565b60405180910390a150505050565b8280546105a5906109ef565b90600052602060002090601f0160209004810192826105c7576000855561060e565b82601f106105e057805160ff191683800117855561060e565b8280016001018555821561060e579182015b8281111561060d5782518255916020019190600101906105f2565b5b50905061061b919061061f565b5090565b5b80821115610638576000816000905550600101610620565b5090565b6000604051905090565b600080fd5b600080fd5b6000819050919050565b61066381610650565b811461066e57600080fd5b50565b6000813590506106808161065a565b92915050565b60006020828403121561069c5761069b610646565b5b60006106aa84828501610671565b91505092915050565b600081519050919050565b600082825260208201905092915050565b60005b838110156106ed5780820151818401526020810190506106d2565b838111156106fc576000848401525b50505050565b6000601f19601f8301169050919050565b600061071e826106b3565b61072881856106be565b93506107388185602086016106cf565b61074181610702565b840191505092915050565b61075581610650565b82525050565b600060808201905081810360008301526107758187610713565b9050610784602083018661074c565b81810360408301526107968185610713565b905081810360608301526107aa8184610713565b905095945050505050565b60006020820190506107ca600083018461074c565b92915050565b600080fd5b600080fd5b7f4e487b7100000000000000000000000000000000000000000000000000000000600052604160045260246000fd5b61081282610702565b810181811067ffffffffffffffff82111715610831576108306107da565b5b80604052505050565b600061084461063c565b90506108508282610809565b919050565b600067ffffffffffffffff8211156108705761086f6107da565b5b61087982610702565b9050602081019050919050565b82818337600083830152505050565b60006108a86108a384610855565b61083a565b9050828152602081018484840111156108c4576108c36107d5565b5b6108cf848285610886565b509392505050565b600082601f8301126108ec576108eb6107d0565b5b81356108fc848260208601610895565b91505092915050565b6000806000806080858703121561091f5761091e610646565b5b600085013567ffffffffffffffff81111561093d5761093c61064b565b5b610949878288016108d7565b945050602061095a87828801610671565b935050604085013567ffffffffffffffff81111561097b5761097a61064b565b5b610987878288016108d7565b925050606085013567ffffffffffffffff8111156109a8576109a761064b565b5b6109b4878288016108d7565b91505092959194509250565b7f4e487b7100000000000000000000000000000000000000000000000000000000600052602260045260246000fd5b60006002820490506001821680610a0757607f821691505b602082108103610a1a57610a196109c0565b5b50919050565b7f4e487b7100000000000000000000000000000000000000000000000000000000600052601160045260246000fd5b6000610a5a82610650565b91507fffffffffffffffffffffffffffffffffffffffffffffffffffffffffffffffff8203610a8c57610a8b610a20565b5b600182019050919050565b600060a082019050610aac600083018861074c565b8181036020830152610abe8187610713565b9050610acd604083018661074c565b8181036060830152610adf8185610713565b90508181036080830152610af38184610713565b9050969550505050505056fea2646970667358221220b8598a180dbe3c2a90d85de201509b4cf6e8129381457ade723a74c17182f7cd64736f6c634300080e0033",
  "immutableReferences": {},
  "source": "\r\n// SPDX-License-Identifier: GPL-3.0\r\npragma solidity ^0.8.0;\r\n\r\ncontract VegetableTraceability {\r\n    struct Vegetable {\r\n        string vegetableType;\r\n        uint256 harvestDate;\r\n        string location;\r\n        string productionPractice;\r\n    }\r\n\r\n    event VegetableAdded(uint256 vegetableId, string vegetableType, uint256 harvestDate, string location, string productionPractice);\r\n\r\n    mapping(uint256 => Vegetable) public vegetables;\r\n    uint256 public vegetableCounter;\r\n\r\n    function addVegetable(\r\n        string memory _vegetableType,\r\n        uint256 _harvestDate,\r\n        string memory _location,\r\n        string memory _productionPractice\r\n    ) public {\r\n        vegetableCounter++;\r\n        vegetables[vegetableCounter] = Vegetable(\r\n            _vegetableType,\r\n            _harvestDate,\r\n            _location,\r\n            _productionPractice\r\n        );\r\n\r\n        emit VegetableAdded(vegetableCounter, _vegetableType, _harvestDate, _location, _productionPractice);\r\n    }\r\n\r\n    function getVegetable(uint256 _vegetableId)\r\n        public\r\n        view\r\n        returns (\r\n            string memory vegetableType,\r\n            uint256 harvestDate,\r\n            string memory location,\r\n            string memory productionPractice\r\n        )\r\n    {\r\n        Vegetable storage vegetable = vegetables[_vegetableId];\r\n        return (\r\n            vegetable.vegetableType,\r\n            vegetable.harvestDate,\r\n            vegetable.location,\r\n            vegetable.productionPractice\r\n        );\r\n    }\r\n}\r\n",
  "sourcePath": "D:\\smart-contract\\vegiTrace\\vegitrace\\contracts\\vegitrace.sol",
  "compiler": {
    "name": "solc",
    "version": "0.8.14+commit.80d49f37.Emscripten.clang"
  },
  "schemaVersion": "3.4.13",
  "updatedAt": "2023-04-17T05:35:59.593Z",
  "networkType": "ethereum",
  "devdoc": {
    "kind": "dev",
    "methods": {},
    "version": 1
  },
  "userdoc": {
    "kind": "user",
    "methods": {},
    "version": 1
  }
}